:020000040000fa
:080000000002040000000000f2
:020000040000fa
:100400008fd72100007f2400000188000000000039
:100410000c00070000592200010020001100070015
:10042000000020000000e000020032000000020096
:1004300000000000be160200000000000040da00cc
:100440000000fe004440a900e01b20000000e00086
:100450000300320000002000a00188004440a800f2
:100460000000060091018800800078000000eb0089
:1004700015003700e280400032a0b4009101ba00bc
:10048000e280400032a0b4009102ba00e280400055
:1004900032a0b4000002eb00472bde00f507b200eb
:1004a000602ce10004003a000059eb008301e900f0
:1004b000fdff3e00040037006128e100010032002a
:1004c0000082eb00040007001101ba000200e00006
:1004d000e8ff3a00000006003159ba008301e90044
:1004e0000c0032002159ba008301e90008003200f3
:1004f0000400e00003003a00e280400032a0b400b3
:10050000f5ff370011d9ba008301e900faff3a007c
:100510008100e800e180400032a0b4000000060045
:10052000d4130400000000001a14040000000000ae
:10053000f61404000000000058150400000000003c
:100540007815040000000000fc1504000000000005
:10055000aa15040000000000180d040000000000af
:100560007e21040000000000502104000000000073
:100570002c2204000000000094220400000000006f
:10058000ae170400000000007e1904000000000007
:10059000f427040000000000122404000000000002
:1005a0004e240400000000008001eb000200370030
:1005b00061f079008301e800828f5100fcff3a006e
:1005c0000000060000037800800178000002eb00c4
:1005d000010037008059780084025100820f5200d8
:1005e0000900320064c078000402e8000004e00062
:1005f000f8ff3a00830078008058eb000580410046
:10060000808f5000fcff3a000600780000000600d2
:100610008001eb0002003700817178008301e8005f
:10062000828f5100fcff3a00000006008000780035
:10063000010037000000e8001004e000fdff3a0070
:1006400001005000000006000001be005c01070030
:100650000470a70003f0a1006509b1001600320084
:100660000d0035006828e10006003500f0ff2f007e
:10067000f1ff27000300e00013003b000100280009
:100680000000050000004000818048008502e9006c
:10069000fcff3a0008003700f88f420002003c00df
:1006a0008000eb00000005008100d1000080d30035
:1006b0008502e800fcff3a000300e00002003b0076
:1006c00060001000e080180000000600889fbe0057
:1006d0008a9fbe00010578000100e000040035009b
:1006e00008003c000000e000200032000500370058
:1006f00060001000e080180002003b0001f02c00b8
:100700001a0037000004be006011b8006b09200019
:100710000982cf00020039000882cf000441b000f6
:10072000694252000e00320008003b0082817100d5
:10073000610164008904d1000884d3008b05e800be
:100740000442e800f9ff3a000500370008044400bd
:1007500089844c008b05e9000442e900fbff3a0064
:100760002c0107000af0a70001f0a0004f05be0011
:100770004f04be0000000600889fbe008a9fbe0096
:100780008c1f7800490107005001330003866c007c
:100790006450e1002e0032006420e100330032009a
:1007a0006150e1002f0032006120e1003100320091
:1007b00085855500eb07b0000900200008042000e3
:1007c000050037000804440089844c000a00310009
:1007d0000603430087834b000001530081815b00c7
:1007e000f8ff33000203be000800a0000804440024
:1007f00089844c00f6ff3900c639dd00830173009f
:1008000001003200130020008904d1000884d300c5
:100810000998a300050032000800a7000300a0000b
:100820008904d1000884d3008b05e8008904d10035
:100830000884d3000001eb000281d200f50007001c
:1008400001f0a1000cf0a70001f0a0002801370082
:100850006420e1002a0132000801be000200be004f
:10086000f7ff37006120e100250132006000b80089
:10087000f3ff37000000200001f82700f0ff3700e9
:10088000889fbe008a9fbe008c1f7800070107006a
:100890000e01330003866c006450e1002400320036
:1008a0006420e100270032006150e10022003200a4
:1008b0006120e100210032008b854200eb07b1008e
:1008c0000134b800003ab8000804420089844a00a4
:1008d000013ab8000030b8008880400009014a00a1
:1008e00004003300000040008180480002014900fc
:1008f0008b05e900c909dd008301700001003200a9
:1009000013002000c814de004814dd004709de0093
:100910001200b200c808de0008847000bd000700a5
:1009200001f0a1000cf0a70001f0a000f0003700da
:100930006120e100f20032000801be000200be00aa
:10094000f7ff37006150e100fcff3a00ec00370090
:10095000f4ff2f00ed00370014002000eb003700fb
:1009600003f0a200889fbe008a9fbe008c1f780003
:10097000ce000700d50033006450e1004f00320084
:100980006420e1005200320003826c0007003b004b
:100990000905d0000306d000820f54000c065d004c
:1009a0000200390002003200890178000306780055
:1009b0008582550004003d000003fd008103fd0019
:1009c0008502ea008b854200840f720002003b0022
:1009d00060001000e08018006011b8000005eb0016
:1009e0007a28e1000a00390006007800c75ddd00c2
:1009f000f707b200878075002d00370082817100f3
:100a00000a017800610560008180d1000080d30078
:100a10008502e900f9ff3b00060440008784480096
:100a200002003b0060041400e0841c000988a3005d
:100a3000070032008a8171008281710061016400c7
:100a40008904d1000884d3008b05e8001700370023
:100a50000978a30013003a000b00e00013003400f3
:100a60008b05e9000804440089844c000a447400a2
:100a70000978a3000d003a000b00e00007003400e5
:100a80008b05e9000804440089844c0001003a0009
:100a90000b0020000978a300f7ff32000001eb00f3
:100aa00002003700828171000a01780059000700b6
:100ab0000cf0a70001f0a0008d0037006420e100d9
:100ac00002003a00838f6c008d0033000801be00e5
:100ad0000200be0086003700839f68000100e0002e
:100ae00002003d0060001000e08018000300e000fc
:100af00002003d0060011100e081190005000700bf
:100b00004f00e00002003b0060001000e080180091
:100b1000000006006022b800060220000000d0009d
:100b20008180d2000482d2008582d2000000a00021
:100b30000202520083825a00030031000202420086
:100b400083824a000000a1000603e900f3ff3a0097
:100b5000000006000001be00190007000470a70095
:100b600003f0a10003f8a30013003a006509b100e7
:100b700010003200090035006928e100020035004c
:100b800001002800000005000000400081804800ae
:100b90008502e900fcff3a0000000600f88f4200e1
:100ba000050035008100d1000080d3008502e800f7
:100bb000fcff3a00000006008000eb00000005008a
:100bc000c70ade00f107b200f50fb20008003200dc
:100bd000e1cf4200020032000170a00024000500b5
:100be000810f700001003200040805004400050078
:100bf000810f700002003a00140005008502e90030
:100c00000000400081c04800fcff3b000170a000d4
:100c10002400050081002000618055000b003d008c
:100c20000b00200061fe2f000100e1001d003400d8
:100c300082817100610164008904d1000884d300bd
:100c40000000e800faff3a00710020006100640033
:100c500003007000020060000900320061044400db
:100c6000e0844c000988a500050032008b05e800ef
:100c70006808e10002003a008904d1000884d3002a
:100c8000f20f20000258e10005003d00c75ddd00c5
:100c9000f907b2008980750008007800000006009e
:100ca0000bf827008b007800000005000004be0050
:100cb000c3ff07000003be000405be000200be0023
:100cc000bfff0700844f7500000006000200be0051
:100cd0006450e100050036006420e10002003600a7
:100ce0000968a30001003a000800be000160a000ee
:100cf0004f0678004f05be004f04be0000000600fe
:100d0000f0ff2f00f1ff2700f9ff3700889fbe009a
:100d10008a9fbe00841f7800e4ff07004f00780020
:100d200011003300f0ff2f00838f6c0006003b00a2
:100d3000040565000a00a7000800370009f0a600b6
:100d40001000200008003700820f5400838f5c00e1
:100d5000030039001000200001003e0000002000c8
:100d600009f0a7000000ea004f05be004f04be00d6
:080d70000000e0000000060095
:020000040000fa
:0200000401f009
:04000c00f8ff0000f9
:020000040000fa
:0200000401f009
:040010007fff00006e
:020000040000fa
:0200000401f009
:040014007fff00006a
:020000040000fa
:10000800d0290000d0290000d0290000d029000004
:10001800d0290000d0290000d0290000d0290000f4
:10002800ec140000d0290000d0290000642500004d
:10003800d0290000d0290000d0290000f6280000af
:10004800d0290000d0290000d0290000a21f0000fc
:10005800f61f000074290000d0290000d0290000f4
:10006800d0290000d0290000d0290000d0290000a4
:10007800d0290000d0290000d0290000d029000094
:10008800d0290000d0290000d0290000d029000084
:10009800d0290000d0290000d0290000d029000074
:1000a800d0290000d0290000d0290000d029000064
:1000b800d0290000d0290000d0290000d029000054
:1000c800d0290000d0290000d0290000d029000044
:1000d800d0290000d0290000d0290000d029000034
:1000e800d0290000d0290000d0290000d029000024
:1000f800d0290000d0290000d0290000d029000014
:10010800d0290000d0290000d0290000d029000003
:10011800d0290000d0290000d0290000d0290000f3
:10012800d0290000d0290000d0290000d0290000e3
:10013800d0290000d0290000d0290000d0290000d3
:10014800d0290000d0290000d0290000d0290000c3
:10015800d0290000d0290000d0290000d0290000b3
:10016800d0290000d0290000d0290000d0290000a3
:10017800d0290000d0290000d0290000d029000093
:10018800d0290000d0290000d0290000d029000083
:10019800d0290000d0290000d0290000d029000073
:1001a800d0290000d0290000d0290000d029000063
:1001b800d0290000d0290000d0290000d029000053
:1001c800d0290000d0290000d0290000d029000043
:1001d800d0290000d0290000d0290000d029000033
:1001e800d0290000d0290000d0290000d029000023
:0801f800d0290000d02900000d
:020000040000fa
:10020800d0290000d0290000d0290000d029000002
:10021800d0290000d0290000d0290000d0290000f2
:10022800ec140000d0290000d0290000642500004b
:10023800d0290000d0290000d0290000f6280000ad
:10024800d0290000d0290000d0290000a21f0000fa
:10025800f61f000074290000d0290000d0290000f2
:10026800d0290000d0290000d0290000d0290000a2
:10027800d0290000d0290000d0290000d029000092
:10028800d0290000d0290000d0290000d029000082
:10029800d0290000d0290000d0290000d029000072
:1002a800d0290000d0290000d0290000d029000062
:1002b800d0290000d0290000d0290000d029000052
:1002c800d0290000d0290000d0290000d029000042
:1002d800d0290000d0290000d0290000d029000032
:1002e800d0290000d0290000d0290000d029000022
:1002f800d0290000d0290000d0290000d029000012
:10030800d0290000d0290000d0290000d029000001
:10031800d0290000d0290000d0290000d0290000f1
:10032800d0290000d0290000d0290000d0290000e1
:10033800d0290000d0290000d0290000d0290000d1
:10034800d0290000d0290000d0290000d0290000c1
:10035800d0290000d0290000d0290000d0290000b1
:10036800d0290000d0290000d0290000d0290000a1
:10037800d0290000d0290000d0290000d029000091
:10038800d0290000d0290000d0290000d029000081
:10039800d0290000d0290000d0290000d029000071
:1003a800d0290000d0290000d0290000d029000061
:1003b800d0290000d0290000d0290000d029000051
:1003c800d0290000d0290000d0290000d029000041
:1003d800d0290000d0290000d0290000d029000031
:1003e800d0290000d0290000d0290000d029000021
:0803f800d0290000d02900000b
:020000040000fa
:100d78004d6f0000642000006c7500006372000075
:100d8800753a000000610000757400006f000000f3
:100d9800546500006d7000003a0000006d610000ad
:100da8006e20000000540000656e0000733a0000d9
:100db800005500006c740000696d0000612000009f
:100dc800636f00006d3a0000003100002d690000db
:100dd8006e740000657200006f67000061720000a9
:100de800652000006d6f000064200000646500004d
:100df800206c000075630000727500000a20000076
:100e0800322d0000636f00006d75000074610000f2
:100e180072650000206d00006f640000206400000f
:100e2800652000006c75000063720000750a000000
:100e3800203300002d6900006e7400006572000008
:100e48006f67000061720000652000007465000093
:100e58006d7000006572000061740000757200001a
:100e6800610a0000004d00006f640000206400006b
:100e7800652000006c75000063720000752000009a
:100e88006d6100006e750000616c00000a000000d2
:100e98004d6f00006420000064650000206c0000b5
:100ea8007563000072750000206100007574000011
:100eb8006f6d0000617400000a000000436f0000bd
:100ec8006d7500007461000074200000696e0000f8
:100ed800206d00006f6400002064000065200000a1
:100ee8006c750000637200007520000061750000d9
:100ef800746f00006d610000740a00000043000078
:100f08006f6d0000757400006174000020690000b6
:100f18006e2000006d6f0000642000006465000012
:100f2800206c00007563000072750000206d0000e1
:100f3800616e0000756100006c0a0000000a000084
:100f480000540000734c00004344000000540000ab
:100f58007353000065720000696100006c61000055
:100f6800005400007341000070700000005400003d
:100f780073540000656d0000700000005473000099
:100f8800546500006e7300000054000073500000a8
:100f9800574d000041750000746f000000540000b8
:100fa80073500000574d00004d6100006e000000b6
:100fb80011110000222200003333000044440000d5
:100fc80055550000666600007777000088880000a5
:100fd80099990000aaaa0000bbbb0000cccc000075
:100fe800dddd0000eeee0000cecd0000acab000071
:100ff80002020000030300000404000005050000cd
:101008000606000007070000080800000a0900009b
:1010180010100000101100001212000051430000cf
:101028006f6e000073420000310000005150000054
:10103800726f00006442000032000000515000004e
:10104800726f00006442000033000000514300004a
:101058006f6e000073420000340000005150000021
:10106800726f000064420000350000005143000028
:101078006f6e00007342000036000000960000000a
:10108800c8000000fa0000002c0100005e0100000a
:1010980090010000c2010000f40100004254000069
:1010a80065730000743100000042000054650000c0
:1010b8007374000032000000434f00004d540000dc
:1010c80078000000434f00004d52000078000000f7
:1010d800496e0000744d0000617400006800000053
:0c10e800494400004c45000000000000de
:020000040000fa
:1010f4000000fa00fc3cec000080fa00000006004e
:101104000000fa00889fbe008a1f7800000578005e
:1011140081047800e38f500001003600390020007c
:101124005c0e070040e880008a0f500002003a007d
:101134000005eb00020037000a00e00002003a005c
:1011440048e88000010037000a047800b8089000dd
:10115400818f540025003200030036000a00e000ad
:1011640003003a00040037000a00e00002003a00dd
:101174001a002000010037000005eb00390c98002c
:1011840064801400600498006a09b900e0c7210073
:1011940002004000d8009000808f50000e003a00fa
:1011a4008884e80009007800330f0700b80890002d
:1011b40000e88000808f50000100360001e88800bc
:1011c400380990006a11b900e0c72100020040000c
:1011d40089007800020f0700e10f550003003a0070
:1011e4006027020000000000000000002e0e07002f
:1011f4004f0578004f04be000080fa00000006008e
:101204000000fa00889fbe008a1f780080047800de
:10121400200e070040e88000890f500002003a00c9
:101224008004eb00020037000900e00002003a00ed
:1012340048e8800001003700090478000885e800c8
:101244000a0078000c0f0700280890000000e00056
:10125400020032006c004400070f07008a00780087
:1012640020c52100de0e07000f0e07000900e00074
:1012740003003a00602702000000000000000000a4
:101284004f0578004f04be000080fa0000000600fd
:101294000000fa0000017800d000900020c5210071
:1012a400808f500007003a00a2089000c0c52100ba
:1012b400808f500003003200100020000100e00085
:1012c400010032000000eb000080fa00000006007c
:1012d4000000fa00889fbe00000478000000e000cf
:1012e4001f00320040e88000800f54001c003200d0
:1012f400e80d070008007800e5ff0700e10f500043
:1013040016003a008884e80009007800da0e070025
:10131400b808900000e88000808f5000010036007b
:1013240001e88800380990006a11b900e0c721007b
:101334000200400089007800a90e070040e8800000
:10134400b808900030089000808f500003003900e6
:10135400602702000000000000000000d20d07001a
:101364004f04be000080fa00000006000000fa00ee
:10137400889fbe008a1f780000047800c4ff07001d
:101384000005eb00e10f50001d003a00e1e780008a
:101394000100e00016003a0040e8800001057800f2
:1013a400b808900030089000808f50000100390088
:1013b4001a0020008884e80009007800ae0e0700b7
:1013c400b808900000e88000808f500001003600cb
:1013d40001e88800380990006a11b900e0c72100cb
:1013e40002004000890078007d0e070004003700e9
:1013f400ec004400c0c52100790e07000005eb0095
:101404000a0078004f0578004f04be000080fa00ff
:10141400000006000000fa0042a0a800fe3cef0015
:10142400990d07000080fa00000006000000fa0091
:10143400881f7800fc1ce2002b003a00043dec00fd
:10144400041de20005003a0040e3800031e380001f
:1014540041e3880030e38800f63cec0040e3800080
:101464001000e00022003a002a00370098009000a3
:1014740020e88000808f500026003e000880e800ad
:101484007d0e0700280890000000e00002003200f2
:101494006c004400780e0700b808900000e8800053
:1014a400808f50000100360001e888008880e80041
:1014b400380990006a11b900e0c721000200400019
:1014c400470e070040e380001000e00011003200e6
:1014d40040e3800030009000300490000800e000f9
:1014e400e2ff3a000b003700fa3cec000900370039
:1014f40040e3800030009000300490000800e000d9
:10150400040032009800900020e88000808f500092
:10151400daff36004f0478000080fa00000006006d
:101524000000fa00889fbe005a0d0700fc3ced0045
:10153400e0e780000000e00033003a00061de2000e
:101544003100320080047800150037006c0044003c
:10155400490e07000880e800470e0700b80890000d
:1015640000e88000808f50000100360001e8880008
:101574008880e800380990006a11b900e0c72100aa
:1015840002004000160e0700b808900040e88000f2
:1015940030089000808f50000100390019002000ad
:1015a4005c1ce2000500320010e380003000900073
:1015b400000478000000e000e4ff3a00fa1ce200b6
:1015c40013003a000500370098ff0700fa3ced00cd
:1015d400fa1ce20006003200fbff3700e18f5400e2
:1015e40003003200c0e78000e10f500006003a001b
:1015f400f83cef006027020000000000000000003b
:1016040018002000050037000004eb000300370039
:10161400fa1ce200f6ff3200ebff3700220d070050
:10162400080078004f04be000080fa0000000600a5
:101634000000fa00889fbe00800478000000e000eb
:1016440016003200aafe070028e88000088444003f
:10165400089dec00080e070040e880001800980080
:1016640020e88000800f54000500310041e880002c
:1016740030e380008180e800e70d070004003700b4
:1016840041e8800040e380008180e800e20d07002b
:10169400a3ff07000000e00003003a0060270200f7
:1016a40000000000000000004f04be000080fa00ab
:1016b400000006000000fa00889fbe008004780045
:1016c400010478008afe070099007800088440002d
:1016d40020e88000808f500003003600888f50007f
:1016e4000600360002003700888f500005003e00d7
:1016f40020e88000800f540002003e000000eb0050
:101704000100370010002000880c78000000e00081
:1017140010003200089dec00d70d070040e880005f
:101724001800980020e88000800f54000500310064
:1017340041e8800030e380008180e800b60d0700b6
:101744000400370041e8800040e380008180e80025
:10175400b10d070072ff07000000e00003003a002b
:101764006027020000000000000000004f04be00db
:101774000080fa00000006000000fa00881f7800cc
:10178400c40c070028e88000c70c07000800780094
:101794004f0478000080fa00000006000000fa0000
:1017a40030e880000080fa00000006000000fa0023
:1017b400fc1ce2001500320010002000c0e7880085
:1017c40019003700003ded001000370000e88000ec
:1017d4006a00b900e2c721008000410011009000b6
:1017e400100190009200980064804000800f510026
:1017f40002003a001201900092009800110090003b
:101804003000900040e888000700370000e88000be
:101814006a00b900e2c72100620078000000e0001d
:10182400e8ff3200e9ff37000080fa0000000600fc
:101834000000fa00881f78000104780041e8800065
:10184400ec804000740d0700089dec008a0d070031
:10185400e10f440005003a0041e880008180e8007f
:1018640020c521005e0d07001000370020e880002d
:101874000000440041e880009000980021e88000c6
:10188400810f50000500310041e8800030e3800002
:101894008180e800600d07000400370041e8800003
:1018a40040e380008180e8005b0d07004f0478006e
:1018b4000080fa00000006000000fa00881f78008b
:1018c40080007800100078000000e00002003a0078
:1018d40000047800020037003100900030049000ca
:1018e4006c004400640d0700fc1ce2000e003a008a
:1018f4000880e800600d0700b808900000e8800048
:10190400808f50000100360001e888008880e800dc
:10191400380990006a11b900e0c7210002004000b4
:101924002f0d070003003700ec004400c0c5210060
:101934002b0d07003808900041e88000b1089000a2
:101944000001eb00810f500001003900120020005b
:10195400020078004f0478000080fa0000000600be
:101964000000fa00b1e780000108780021e8800057
:10197400110098000080fa00000006000000fa0040
:10198400889fbe008a1f7800000478000105780053
:10199400400c07001a0178008004eb00e10f4100bd
:1019a40014003200b0e78000980f100004003200e9
:1019b40021e8800018009000810f50000c003600d0
:1019c4009800900001007800041db500800f5100bc
:1019d4000700360001007800041db500000d510019
:1019e40008007800deff07008004eb0001003700e8
:1019f400190020002c0c0700090078004f0578001e
:101a04004f04be000080fa00000006000000fa0047
:101a140010002000c0e788000080fa0000000600e3
:101a24000000fa000080fa00000006000000fa003e
:101a3400f0e38000e10f500003003600602702004d
:101a4400000000000000000026050700f8ff370032
:101a54000000fa00889fbe008a1f78008004780086
:101a6400020478007a00400042002000d4fa070003
:101a74000040eb00d05c9800e30f540003003600f4
:101a8400380020001a00200001003700640514000b
:101a9400b80c98000980e800cc0c07006c84440062
:101aa40008007800c90c0700c90498000a0c7800e3
:101ab400990c98004f0578004f04be000080fa008e
:101ac400000006000000fa00889fbe00e8c721005d
:101ad40069ca210008007800b30c07006a044400b6
:101ae400888f5400fbff3a0040c72100ae0c07006a
:101af400a0c62100ac0c0700c0c52100aa0c070039
:101b040020c52100a80c070040c7210040e388003d
:101b1400a0c6210030e388004f04be000080fa0014
:101b2400000006000000fa00889fbe008a1f7800ab
:101b3400000578000104780000022000f10d070080
:101b4400800478000000e000100032000800e0008b
:101b540003003a000a004500ea0d0700000478007b
:101b6400c80c98000800e00004003a00090078005e
:101b7400fd0d070088047800040037000a014500c1
:101b8400510a200008007800a0fa07000900780034
:101b94004f0578004f04be000080fa0000000600e4
:101ba4000600fa00889fbe008a9fbe008c9fbe007c
:101bb400000f7800010678000205780013079800ea
:101bc4008406780025079800860078008705780049
:101bd40002007800d3ff0700800478000080eb0047
:101be4000900e00041003200490c90000a00450061
:101bf400000044000080e900f00c98000a0278001c
:101c04008b0178000d0178008c00780009007800c1
:101c14008fff07001e0190009e00780008007800e6
:101c2400530b0700800c78009a0b0700063dec006c
:101c340030e88000e10f500003003a0049e88800d2
:101c4400a0ff070007003700fe1ce20005003a0071
:101c540040e8800030089000808f56000100390071
:101c640049e88800b908900010e88000808f50008f
:101c74000100360011e88800f43cec00b90890003b
:101c840000e88000808f50000100360001e88800e1
:101c94008980e800390990006a11b900e0c7210081
:101ca400020040004e0c07007f0b07002e0090003e
:101cb4000000e0000100320009087800fe1ce20088
:101cc4000900320040e88000300890008d0f500079
:101cd4000500310060270200000000000000000041
:101ce4001000200001003700100020004f06be0045
:101cf4004f05be004f04be000080fa00000006003d
:101d04000000fa008003eb000003eb008602780079
:101d14000602780086017800920620004187280098
:101d240080d120009eff0700e10f500004003a001c
:101d340042a0a800f0e78800043def00220b070052
:101d44000080fa00000006000000fa00889fbe0030
:101d54008a9fbe0080047800010578000000e0003e
:101d64002400320060022000660d070000047800a1
:101d74000000e0001f0032000ac8b90080057800a6
:101d84000000e8005f0d070000017800000c7800f7
:101d94000000e000130032000b0040001004980023
:101da4000000eb00600c9800220498000900e90090
:101db40000d0b9000000410030049800790c98006c
:101dc4000a1498000080eb00101498002014980066
:101dd40068004400f40b070072004400f20b070093
:101de40005003700080078005f0d07000004eb00d1
:101df400010037000004eb00080078004f05be0026
:101e04004f04be000080fa00000006000000fa0043
:101e1400889fbe00000478001e0b0700e8089000ad
:101e24008004eb0078089000808f500001003a0095
:101e3400190020001c0b0700090078004f04be00a5
:101e44000080fa00000006000000fa00881f7800f5
:101e5400000478000f0b0700680c9000120b0700b9
:101e6400080078004f0478000080fa0000000600a3
:101e74000000fa00600890000080fa0000000600ec
:101e84000000fa00881f7800000478001000780031
:101e9400350d070008007800330d07004f04780063
:101ea4000080fa00000006000000fa00881f780095
:101eb4000004780002007800081190000200e0009d
:101ec400190032000000e0000c003a0028009000e5
:101ed400b4f9070028009000881090000100400029
:101ee4002004980098009000810f50000e003900e3
:101ef40018007800200498000b0037003800900088
:101f0400a8f90700380090008810900001005000e4
:101f140030049800980f500003003100180090001e
:101f24000100500030049800680890000000e800a8
:101f3400600c98004f0478000080fa00000006004e
:101f44000000fa00889fbe000004780001027800b7
:101f54008204780003017800e00890007008900083
:101f64008001eb00808f500016003100840078005f
:101f740008007800ccff070028109000e10f400013
:101f84000b003a00180890000000e0000c0032003a
:101f94007200440048fe07000000e0000800320020
:101fa40010002000800c78008001780005003700c4
:101fb4000000e800201498001300200001003700fe
:101fc40013002000030078004f04be000080fa00d4
:101fd400000006000000fa0000017800810178008a
:101fe4001000e0000e0032003000900082109000db
:101ff400010040003001980092009000810f5000d1
:102004000200390012007800300198006600410097
:1020140090007800021190000300780061f9070035
:102024000080fa00000006000000fa00889fbe004d
:102034000004780082047800600890000000e0004a
:102044001700320008007800e2ff070068089000db
:102054000000e900600c980018109000e10f4000a7
:102064000a003a00480090000000e0000b00320033
:102074006800440010fe07000000e0000700320082
:1020840010002000800c7800050037000000e800f4
:1020940010149800100020000100370010002000e8
:1020a4004f04be000080fa00000006000000fa00a1
:1020b400881f780000047800760a07002810900032
:1020c4000000e00029003c000d00370018089000d3
:1020d4000000e0000a00320072004400f6fd070030
:1020e4000000e0000100320048fe070028109000c4
:1020f4000000e900201498004240a900f3ff3c00ce
:102104000080eb0020149800670a0700610a0700aa
:10211400181090000000e00018003c000d0037008b
:10212400480090000000e0000a003200680044000b
:10213400e1fd07000000e0000100320033fe07006b
:10214400181090000000e900101498004240a90003
:10215400f3ff3c000080eb0010149800520a0700c3
:102164004f0478000080fa00000006001808900070
:102174000000e000e2ff3200d7ff37004800900083
:102184000000e000f3ff3200e8ff37000600fa0029
:10219400889fbe008a9fbe008c1f78008004780050
:1021a4008105780022079800030678000005eb00fb
:1021b400380a0700690890000000e0001f003200a0
:1021c400390490008b0078000900780081ff070033
:1021d4000c00e0000b003a00690890000000e900e0
:1021e400e00c9800490090000000e000100032006c
:1021f40068804400b0fd0700e10f50000c003a0075
:1022040008003700b8049800190890000000e000a6
:102214000700320072804400a7fd07000000e000c0
:1022240003003200602702000000000000000000ec
:102234001d0a070010002000370037002e0490000c
:102244000800e00003003a00170a070008007800bd
:10225400310037000a00e00003003a000e00780065
:10226400bffd07001a0020000f0a0700a0fb0700ab
:10227400080a070019109000e10f400002003a001c
:102284000000eb009014980029109000e10f40002a
:1022940002003a000000eb00a0149800020a0700b4
:1022a400e40047000e007800b4fd07000000e000e1
:1022b40015003a00f7090700690c9000fa090700b5
:1022c4000800e0000c003a00ae0090007280440068
:1022d40057fd07000900780074ff070090fc070011
:1022e4000000e000b2ff3a00602702000000000096
:1022f40000000000aeff3700090078006bff070004
:1023040087fc0700aaff37000900780067ff070071
:1023140083fc07000000eb004f0678004f05be0069
:102324004f04be000080fa00000006000600fa0018
:10233400889fbe008a9fbe008c1f780080047800ae
:102344000106780022079800830578000005eb0059
:10235400d0090700e908900079089000808f5000a8
:10236400110031000b0178008c007800090078001e
:10237400cdfe0700190890000000e00007003200bd
:10238400728044004cfd0700e10f500003003a0046
:10239400602702000000000000000000c2090700de
:1023a40010002000360037002e0490000800e000e2
:1023b40003003a00bc090700080078003000370029
:1023c4000a00e00003003a000e00780064fd0700f4
:1023d4001a002000b409070045fb0700ad090700f7
:1023e40019109000e10f400002003a000000eb00d9
:1023f4009014980029109000e10f400002003a0068
:102404000000eb00a0149800a7090700e4004700af
:102414000e00780059fd07000000e00014003a00a7
:102424000900780079fe07000000e0000c0032008b
:10243400ae00900068804400fdfc070009007800ad
:102444001aff070036fc07000000e000c0ff3a0056
:10245400602702000000000000000000bcff3700fd
:102464000900780011ff07002dfc0700b8ff3700b2
:10247400090078000dff070029fc07000000eb00ad
:102484004f0678004f05be004f04be000080fa00de
:10249400000006000000fa00e00890000100ea00d5
:1024a400010070004f00de00610010000080fa009f
:1024b400000006000000fa00e00890000001eb00b4
:1024c40070089000808f500001003a001200200034
:1024d400020078000080fa00000006000000fa0004
:1024e400889fbe008a1f78000004780001057800e8
:1024f4008204780042a0a80044fe07000000e00027
:102504000b0032000900e00006003200e80044003d
:1025140009007800f704070042a0a900c0ff2f00bb
:102524001a00370042a0a9000000eb001700370092
:1025340042a0a9000000000042a0a800e808900002
:10254400780890000001eb00808f50000d003100ee
:102554000001eb008a0078000800780052fe0700b2
:10256400180890000000e0000500320072004400ea
:10257400dd050700b2ff2f000000e00001003a0073
:102584001200200042a0a900020078004f05780044
:102594004f04be000080fa00000006000000fa00ac
:1025a400881f7800000478008101780042a0a80008
:1025b400600890000000e0000b003a000200e00018
:1025c40006003200f200440002007800c90407004b
:1025d40042a0a900c0ff2f002700370042a0a90095
:1025e4000000eb002400370042a0a9000000000016
:1025f40042a0a800680890000000e00002003a0031
:10260400800078001a00370038009000881090008d
:10261400010040003004980098009000810f5000a1
:10262400020039001800780030049800680890000f
:102634000000e900600c98006600440090007800f7
:102644000811900003007800d6f7070048009000b6
:102654000000e0000500320068004400a205070005
:10266400b1ff2f000000e00001003a00110020003b
:1026740042a0a900010078004f0478000080fa000d
:10268400000006000000fa00889fbe0000047800e5
:102694008101780082047800e008900070089000be
:1026a400808f50000f0031000001eb0083007800a0
:1026b40008007800fcfd07000900e00009003a006a
:1026c400180890000000e000080032007200440086
:1026d40085050700110020000000e00004003a0016
:1026e4000200370089007800010037008000eb0009
:1026f400010078004f04be000080fa0000000600cc
:102704000000fa00889fbe00000478008101780070
:1027140082047800600890000000e0001e0032008f
:1027240038009000881090000100400030049800a8
:1027340098009000810f50000200390018007800c2
:1027440030049800680890000000e900600c9800cc
:10275400660044009000780008119000030078009f
:1027640090f707001900e0000a003a0048009000c2
:102774000000e00007003200680044005a0507002a
:102784000000e0000300320010002000800c7800fc
:1027940001003700100020004f04be000080fa0042
:1027a400000006000000fa0060ea8000e10f50001b
:1027b4000c003a009e030700c06b28000c040700bd
:1027c400706c28000a04070020002000980307000a
:1027d400c06c28000604070070d42100040407001c
:1027e4000c0037001000200091030700c06b280084
:1027f400ff030700206d2800fd03070020002000d0
:102804008b030700706d2800f903070020d4210012
:10281400f70307004000200085030700d06d28005f
:10282400f30307002eddbf005d030700deff370062
:102834000200fa00881f78000001eb00916e280066
:102844000000eb00100607000081eb008e0078000a
:102854000000eb009b0507000000e000faff3200d7
:1028640010c3b3009e4f10001d003a004c1de2003f
:102874000d003a000001eb00717328000000eb002a
:102884000106070020e980005dfa070040e98000a6
:102894005bfa070010e980008dfa070030e9800038
:1028a4008bfa07000c0037000001eb00c17428000c
:1028b4000000eb00f405070010e9800050fa07005f
:1028c40030e980004efa070020e9800080fa070012
:1028d40040e980007efa070010c3b3002efdb70064
:1028e40020c3b3009e4f100022003a004c1dee009e
:1028f4004c1db7004f00de006100100060ea880044
:10290400e10f50000d003a000001eb002176280091
:102914000000eb00dc05070010e9800038fa07002e
:1029240030e9800036fa070020e9800068fa0700e1
:1029340040e9800066fa07000c0037000001eb0054
:10294400317828000000eb00cf05070020e9800063
:102954002bfa070040e9800029fa070010e98000fb
:102964005bfa070030e9800059fa070020c3b3007e
:102974002efdb70038c3b3009e4f1400b2ff3a00d7
:1029840060ea8000e10f5000afff3a000001eb0065
:1029940071d421000000eb00bb0507000001eb002f
:1029a400317a28000000eb00b70507000800780022
:1029b4002efdb700a4ff37000000fa00c8e2a8000b
:1029c4008400a9009400a8008200a8000080fa00f6
:1029d400000006000000fa004e3dec008400a9004f
:1029e4000080fa00004006000000fa0070ea80004f
:1029f4000008a3001d003a00b22c20001241780008
:102a04004311de00614061000080ea008180ea0039
:102a1400614060004300dd00b22c200012417800c8
:102a24000234a1000041710002007800cbe2b7003b
:102a3400401f2000fefa070060e98000f0f907005b
:102a440050e98000eef9070040e98000ecf9070046
:102a540030e98000eaf9070020e98000e8f907007e
:102a640010e98000e6f90700e0ff37000008a30042
:102a7400deff3200cb62a90060e9800014fa07008f
:102a840050e9800012fa070040e9800010fa0700bc
:102a940030e980000efa070020e980000cfa0700f4
:102aa40010e980000afa0700d0ff37000800fa0096
:102ab4001b070700008fbe00e2f607000001be00fe
:102ac40071d42100020078006608070080e98000c4
:102ad4008001eb000081eb008e00780013fe0700fc
:102ae400401f2000d2fa0700f1ff37000800fa0067
:102af400f0e88000cf80de00f3f6070002002f002c
:102b0400f35724001bf70700323323003305240056
:102b14005af707002007980031079800c9f6070004
:102b24000001be0021d42100020078004d080700f6
:102b340080e980008001eb000081eb008e007800ca
:102b4400fafd0700401f2000b9fa0700e8ff37002c
:102b54000800fa00889fbe0080e980008001eb0035
:102b64000081eb008e00780088fd07000000e00083
:102b7400f9ff32002e049000be04900002002000f1
:102b840003f823000800be0070f707000000e0000f
:102b94001500350002002000030424000800be00d4
:102ba4006cf707000000e0000f003c00020020006a
:102bb40003f823000800be0068f7070002002000a5
:102bc40003f023002df7070002002000a34924008e
:102bd4002af7070002002400c349240060f7070015
:102be40098f60700d00e88004006200090fa0700ef
:102bf400d9ff37000800fa00889fbe0080e98000f2
:102c04008001eb000081eb008e0078005ffd07007f
:102c14000000e000f9ff32001e04be0002002000a4
:102c2400031a24000800be0048f707000000e00073
:102c34001500350002002000031f24000800be0018
:102c440044f707000000e0000f003c0002002000f1
:102c5400031a24000800be0040f707000200200009
:102c640003122400c3f6070002002000a349240035
:102c740002f7070002002400c349240038f70700c4
:102c840070f60700d00e88004006200068fa07009e
:102c9400daff37000000fa00f0c0b300c061b600ec
:102ca400c0cfb300c061b600c3e1a9000000280092
:102cb400c221b600c941a800c8c1a800c841a900e2
:102cc400204e2000d00e8800400d2300200e8800e6
:102cd400c0c0b300c061b700ca01a900c1e1a80027
:102ce4000080fa00000006000000fa0068c0a80096
:102cf400c842a8003c060700ca42a8000080fa00a7
:102d0400000006000000fa0090022000303a88001b
:102d1400764040004467b60000ceb3004467b60076
:102d240012002000a1092000800720003374200035
:102d34008049780081497800824978007105200033
:102d440060042000237420008049780081497800c1
:102d54008249780043c7bf000047b200f04f5000db
:102d6400fcff3a0042c7bf000058a300fdff320039
:102d74000080fa00000006000000fa002ca3ef0017
:102d840000002f0050168800c7080700ddff070069
:102d9400d5ff0700560207002d0907004a0907005e
:102da40005ff0700c962a900baff0700c842a800ce
:102db400c862a800c822a900a2002000005822006e
:102dc40001002000e203070081002000a000200091
:102dd400ddfb070080e988008003eb000003eb00c3
:102de400c5d221001400200086017800920620003c
:102df400517a2800403d210069fb07008003eb0065
:102e04000003eb00a5d22100140020008601780005
:102e1400220d2000b17a2800a041210060fb0700a8
:102e24008003eb000003eb0086027800140020000e
:102e34008601780092062000517b2800604f210013
:102e440057fb07008003eb000003eb0085d2210051
:102e5400140020008601780092062000b17b28002f
:102e6400805521004efb07008003eb000003eb00bc
:102e740065d221001400200086017800920620000b
:102e8400217c28008057210045fb07008003eb00cc
:102e94000003eb0045d221001400200086017800d5
:102ea40092062000917c2800c05f21003cfb0700b3
:102eb4008003eb000003eb0025d221001400200066
:102ec4008601780092062000317d2800a05a210056
:102ed40033fb07008afb07000000eb000080fa00c8
:102ee400000006000000fa00070307000080fa0053
:102ef400000006000000fa0021002000500020001d
:102f040091fb070000ea88008003eb000003eb005c
:102f140086027800340020008601780092062000a2
:102f240021852800e07a21001dfb07008003eb00c7
:102f34000003eb00e5d32100240020008601780083
:102f44009206200091852800e097210014fb0700d9
:102f54000080fa00000006000600fa00889fbe0008
:102f64008a9fbe008c9fbe000006eb001d0020005f
:102f7400e200470064004700010878001c0798003d
:102f84008c007800a00020000104dd00faf907009d
:102f94008004780000ea80008001eb0008017800da
:102fa4008e00780079fc07000000e0000100320088
:102fb4009de98800f0f9070089005000810f540052
:102fc400010036009de988006f004400808f5000a6
:102fd400010036009de988001e0090008000e80092
:102fe40011079800e48f5000e6ff34001c07980096
:102ff40064004700900578001800200000ea800073
:103004008001eb00030178008b007800c7fc070007
:10301400e10f50000100320098e988001e00900082
:103024000000e80010079800e40f5000f3ff34009c
:103034001c0798008c0078001a002000a0002000d3
:103044000104dd00ccf907008004780000ea800068
:103054008001eb00080178008b007800b3fc0700c6
:103064000000e000010032009ae98800c2f907007c
:1030740089005000810f5400010036009ae988004d
:103084006f004400808f5000010036009ae98800e8
:103094001e0090008000e80011079800e48f5000a3
:1030a400e6ff34003c3def00f0e9800088f80700bb
:1030b400e1e9800050052000808f500006003200b6
:1030c400000478004001200059f90700e0e980007d
:1030d400880f5000fbff3a004001200054f907001c
:1030e400ece988001c07980018002000590520000e
:1030f40000ea80008001eb00030178008e00780074
:1031040022fc0700e10f50000100320098e988001a
:1031140000ea80008001eb00030178008b00780056
:1031240082fc0700e10f50000100320098e988009a
:10313400e0e98000890f500001003a0098e9880016
:10314400f0e9800051002000edf70700e0e980007d
:10315400890f500001003a0098e98800f0e98000e6
:1031640021002000e6f707001e0090000000e800a0
:1031740010079800e40f5000ddff3400e1e98000ff
:1031840050052000808f50000600320000047800b3
:103194004001200026f90700e0e98000880f500074
:1031a400fbff3a004001200021f90700ece9880008
:1031b4001c0798001800200000ea80008001eb0042
:1031c400030178008e007800f0fb0700e10f500047
:1031d4000100320098e988001e0090000000e80019
:1031e40010079800e40f5000f3ff3400f0e980006a
:1031f40037f80700e1e9800050052000808f500077
:1032040006003200000478004001200008f907009d
:10321400e0e98000880f5000fbff3a0040012000e5
:1032240003f90700ece988001c0798001800200047
:103234005905200000ea80008001eb0003017800ba
:103244008b00780039fc0700e10f500001003200c8
:1032540098e9880000ea80008001eb00030178000f
:103264008e007800c9fb0700e10f50000100320016
:1032740098e98800e0e98000890f500001003a00d5
:1032840098e98800f0e98000510020009cf70700cd
:10329400e0e98000890f500001003a0098e98800b5
:1032a400f0e980002100200095f707001e0090003f
:1032b4000000e80010079800e40f5000ddff340020
:1032c400e1e9800050052000808f500006003200a4
:1032d4000004780040012000d5f80700e0e98000f0
:1032e400880f5000fbff3a0040012000d0f807008f
:1032f400363dec0021ff37000200fa00889fbe0033
:103304008a9fbe008005eb00590520001a002000aa
:103314000000eb00baf7070017f907000004780073
:103324000b0f7800e9e9880000ea80008b0178003f
:10333400f20a20008e007800fcfb07000000e00089
:10334400010032009ae988000bf907008800500058
:10335400e00a2000808f500003003600e00b2000bc
:10336400808f5000010036009ae98800e9e988005e
:103374000000eb00a2f70700fff807000004780044
:10338400e9e9880000ea80008001eb00f20a2000ed
:103394008e0078007dfb07000000e0000100320091
:1033a4009ae98800f4f8070088005000e00a200039
:1033b400808f500003003600e00b2000808f500007
:1033c400010036009ae98800e9e98800343dec0000
:1033d400cfff37000000fa00b1e980000041eb00a4
:1033e400d0e98000808f500001003a0012c0b30081
:1033f400024078000004a2000081fb00a1e98000e3
:10340400c0e98000808f500001003a000001eb0009
:1034140090e98000e10f500001003a000001eb0048
:10342400a0e98000c0e98800b0e98000d0e9880004
:10343400020078000080fa00000006000000fa0094
:103444000000e000270034008000eb0000000000d2
:103454000000000000000000000000000000000068
:103464000000000000000000000000000000000058
:103474000000000000000000000000000000000048
:103484000000000000000000000000000000000038
:103494000000000000000000000000000000000028
:1034a4000000000000000000000000000000000018
:1034b4000000000000000000000000000000000008
:1034c40000000000000000000000000000000000f8
:1034d40000000000000000008100e800810f50009f
:1034e400daff3a000080fa00000006000000fa004b
:1034f400889fbe00800478000000e00006003400cd
:103504000004eb00803e2000ccff07000804e80024
:10351400888f5400fbff3a004f04be000080fa007d
:10352400000006000000fa004c00dd00ca22b700cb
:103534000080fa00000006000000fa004c00dd00e4
:10354400f1ff200001007000ca22b6000080fa00da
:10355400000006000000fa000000eb00f1ff070085
:10356400ca82a80080022000b4ff0700ca82a90012
:103574000080eb00f0ff070010002000e9ff0700c7
:10358400ca82a80020002000d8ff0700ca82a90030
:10359400e0ff2f00e8ff07000080fa0000000600ab
:1035a4000000fa00889fbe008004fb0044ccde00cb
:1035b40008007800dbff0700cac2a8001000200042
:1035c4009eff0700ca82a800800220009bff07001c
:1035d400ca82a900080078000080ea008180ea001d
:1035e400d5ff07006f84640008007800cdff070052
:1035f4001000200091ff0700ca82a800800220006a
:103604008eff0700ca82a900cac2a9000800780078
:103614000080ea008180ea00c7ff070080022000e2
:1036240086ff07004f04be000080fa000000060079
:103634000000fa00889fbe00c1cfb30009fc2f0030
:10364400e20f50001100320003003c00e10f500073
:1036540009003a000b00370091cfb30049f92f005d
:10366400e30f500009003200d1cfb30049fd2f0011
:10367400e40f5000050032008040eb008004eb00b2
:103684000200370081cfb30009f82f000104fb00ca
:1036940008007800a3ff0700ca82a80040012000a8
:1036a40066ff0700ca82a900080078000080ea00cb
:1036b4008180ea00a0ff07006f846400080078009e
:1036c40098ff0700ca82a800400120005bff0700a2
:1036d400ca82a900080078000080ea008180ea001c
:1036e40095ff07004f04be000080fa0000000600aa
:1036f4000000fa00800220007cff07002000200068
:1037040088ff0700ca82a800800220004bff070040
:10371400ca82a900d0ff2f0087ff070020002000e5
:1037240080ff0700ca82a8008002200043ff070030
:10373400ca82a900d0ff2f007fff0700800020006d
:1037440078ff0700ca82a800800220003bff070020
:10375400ca82a90070ff2f0077ff07000000eb006a
:1037640070ff0700ca82a8008002200033ff070010
:10377400ca82a9000080eb006fff0700e000200070
:1037840068ff0700ca82a800800220002bff070000
:10379400ca82a90010ff2f0067ff07006dff070012
:1037a4000000eb005fff0700ca82a800800220002f
:1037b40022ff0700ca82a9000080eb005eff070019
:1037c4006000200057ff0700ca82a8008002200082
:1037d4001aff0700ca82a90090ff2f0056ff0700b6
:1037e4002000200041ff07000080fa0000000600ce
:1037f4000000fa00889fbe008a9fbe008005780002
:10380400000578008004eb000300370068c07d00e9
:1038140063ff07008904e800090478000a007800bf
:1038240081f30700890f5000f8ff3e004f05be00ea
:103834004f04be000080fa00000006000000fa00f9
:10384400889fbe0002ccb300e20f50000d0032008e
:1038540003003c00e10f500007003a000800370065
:1038640042c9b300e30f50000600320042cdb3005a
:10387400e40f5000030032000041eb000100370068
:1038840002c8b300014441000844e9000804fb00f5
:10389400c4c4de000900780022ff0700ca82a80021
:1038a40040002000e5fe0700ca82a9000900780054
:1038b4000080ea008180ea001fff07006f046400b3
:1038c4000800780017ff0700ca82a8004000200003
:1038d400dafe0700ca82a900080078000080ea0026
:1038e4008180ea0014ff07004f04be000080fa0044
:1038f400000006000000fa00889fbe000001780066
:1039040081047800a0ea800000044100589dec0086
:1039140059050700c0ea800018009800a0ea80005a
:10392400800f540005003100c1ea80008180e80066
:1039340080e580003805070004003700c1ea8000f4
:103944008180e80090e58000330507000900e0006d
:1039540004003200c1ea8000ec80400009007800d5
:103964002d0507004f04be000080fa000000060089
:103974000000fa00881f7800a61ce2001a0032003a
:1039840042a0a80030e580000000e00002003a00f8
:10399400000478000200370060e5800030049000e5
:1039a4006c0044003405070042a0a9000880e80028
:1039b40031050700b8089000b0ea8000808f5000fd
:1039c40001003600b1ea88008880e80038099000d8
:1039d4006a11b90080cc21000200400000050700f4
:1039e400a61ce200e6ff3a004f0478000080fa00cb
:1039f400000006000000fa00881f78005ef7070048
:103a040091ea80000100500080ea88002e0037000f
:103a1400a1ea80008100e800a1ea88000000e90032
:103a240080ea88000100e00004003a0090e580008c
:103a340082e5800092e5880080e5880090e58000ba
:103a44001000e00028003a001f00370098009000a2
:103a5400a0ea8000808f50001b003e0042a0a80016
:103a64000880e80004050700280890000000e00032
:103a7400020032006c004400ff04070042a0a900c9
:103a8400b8089000b0ea8000808f50000100360032
:103a9400b1ea88008880e800380990006a11b9000a
:103aa40080cc210002004000cd04070090e5800096
:103ab4001000e00004003200300090003004900058
:103ac4000800e000e1ff3a0080ea80000000e00026
:103ad400cfff3a00a0ea800090ea88004f04780003
:103ae4000080fa00000006003000900030049000ce
:103af4000800e000f4ff320018009000808f5000ae
:103b0400f1ff3900d5ff37000000fa0098ff0700e5
:103b1400b8ff0700b4ea80006a20b90082cc210013
:103b2400800041001100e000190032000900370054
:103b34000201e8006a005000840f51001c003200aa
:103b44008301e900b3ea8800800078001000e000f7
:103b5400f7ff3200110090001001900092009800cd
:103b640064804000800f510002003a00120190006e
:103b7400920098001100900030009000c0ea880084
:103b840010017800c008900002000100080037000e
:103b94000400e000060032006a20b900e2cb2100f4
:103ba40000004100840178000001eb00e4ff3700cd
:103bb4000080fa00000006000000fa00889fbe00a2
:103bc40088cc2100c9cd21000800780076040700c4
:103bd4006a044400888f5400fbff3a00e0cb2100c4
:103be4007104070040cb21006f04070060ca210064
:103bf4006d040700e0cb210090e5880040cb210054
:103c040080e588004f04be000080fa000000060032
:103c14000000fa00889fbe008a9fbe008c1f7800b7
:103c2400800578000104780002057800c0012000b6
:103c3400b4050700800478000080eb000900e00070
:103c440024003200581de20002003a00c9ea88004c
:103c5400d9ff0700e10f54000300360018002000cc
:103c64003c00200001003700640614000000eb0053
:103c7400d00c9800b80c9800ca0c9800090578007c
:103c84000b1d78000a007800500407006c8444007f
:103c9400080078004d040700c9049800990c9800a6
:103ca4000c0c7800b9089000b0ea8000808f5000b6
:103cb40001003600b1ea8800390990006a11b900a0
:103cc40080cc2100020040008a00780044040700f0
:103cd400100020004f0678004f05be004f04be00c0
:103ce4000080fa00000006000000fa00889fbe0071
:103cf400900078000100e00002003a00810478009e
:103d04000200370030009000b00490006c8444003e
:103d140008007800580407008800780060ca210071
:103d24002f040700b9089000c0ea80003008900012
:103d34000001eb00808f50000100390012002000c8
:103d4400020078004f04be000080fa000000060064
:103d54000000fa00881f78008a9fbe000005be009c
:103d640002047800c922a800cb02a8003000200079
:103d74004036880090002000203588001100200083
:103d840002007800f0f7070020eb88001100200003
:103d940008007800ecf7070010eb88002062a90007
:103da4002002a90090cfb3002062b60020a2a9008f
:103db40020c2a90020e2a900c0cfb3002162b6004e
:103dc4002182a90021a2a90021e2a800e00f550048
:103dd400e08f5d00030035000a00be003af20700e0
:103de4000900370061006500010020008b01d1004b
:103df4000a81d300020070008380700032f2070051
:103e04000001be00d6f207000200200003182400bf
:103e14009af207000001be000068290081c1240055
:103e240054f207000200200003f02300cbf2070045
:103e340047f3070040118800f0c3b3002262b600c4
:103e44002342a80023c2a90023a2a90023e2a900b7
:103e540042a0a8008560a9008580a900a9c0bf0070
:103e6400f1c8b300014060000044a000a9e0b7001d
:103e7400aac0bf0081cfb300014060000004a000cd
:103e8400aae0b7009580a8009560a80022c2bf00f0
:103e94000008a300040032003011800022c2bf00d9
:103ea4000008a300fcff3a001000200000eb88008b
:103eb4000000eb004f05be004f0478000080fa00bc
:103ec400000006000000fa0020eb80008001eb00f7
:103ed400aef80700800078000000ea0001007000de
:103ee4004f00de000080fa00000006000200fa0025
:103ef400014f780010eb80008001eb008e00780009
:103f04000af907008000eb00e10f500006003a00b8
:103f140011002000601de20003003200603def004c
:103f24008580a80011002000010078000080fa00bc
:103f3400000006000000fa000080fa0000000600fd
:103f44003600f800809fbe00829fbe00849fbe00a2
:103f5400869fbe00881f78003400f800000020000f
:103f6400a00188000400fa000000eb00100798008c
:103f74008560a90022c2bf000008a3000b00320024
:103f84000e04780030118000004f780020eb800090
:103f94008001eb000e81e80088007800e8f7070054
:103fa40022c2bf000008a300f6ff3a001e009000e2
:103fb4000000e0000300320060270200000000005f
:103fc400000000000080fa003400f9004f0478007b
:103fd4004f03be004f02be004f01be004f00be00a3
:103fe4003600f900004006003600f800809fbe004d
:103ff400829fbe00849fbe00869fbe003400f800ee
:1040040000002000a00188000400fa000000eb007a
:10401400100798008580a90023c2bf000018a300e0
:10402400fdff3a0010eb80000e81e8008e0078005e
:10403400fdf70700e10f500003003a001e00fb00eb
:1040440020118800f4ff37001000200000eb8800e6
:104054001e0090000000e000030032006027020010
:1040640000000000000000000080fa003400f900a5
:104074004f03be004f02be004f01be004f00be0002
:104084003600f900004006000000fa00889fbe00d8
:104094008004780001047800914078000104e00075
:1040a400060032000001eb00090078008fff0700d2
:1040b400d84078000104e000faff3a004f04be0043
:1040c4000080fa00000006000000fa00889fbe008d
:1040d4008a9fbe008c1f78000006780060002000d4
:1040e40088040700800478002100200010002000cc
:1040f40015f70700800c78008b3e20009b04980085
:1041040020ce2100a0049800600020007d04070058
:1041140000057800190878000004eb0018009800e6
:10412400c0cd2100200598008003eb00080378002f
:10413400880278000c027800890178009206200039
:1041440021812800e017220095f607008003eb0088
:104154000803780088027800080278008a01780051
:1041640092062000a1812800001522008cf6070089
:104174006000200063040700800478002100200010
:1041840010002000f0f60700800c780098049800d6
:10419400e0cd2100a004980060002000590407002d
:1041a40000057800190878001b00980040ce210013
:1041b400200598008003eb0008037800880278004b
:1041c40008027800890178009206200021822800e4
:1041d400e017220072f607008003eb000803780062
:1041e400880278000c0278008a0178009206200088
:1041f400a18228000015220069f607006000200053
:1042040040040700800478002100200050002000b2
:10421400cdf60700800c78009b04980000ce2100a6
:10422400a004980060002000360407000005780010
:10423400190878001b00980060ce21002005980022
:104244008003eb00080378008802780008027800f5
:10425400890178009206200021832800001522009d
:104264004ff607008003eb0008037800880278000b
:10427400080278008a01780092062000a1832800b1
:10428400e017220046f607004f0678004f05be00ef
:104294004f04be000080fa00000006000200fa008d
:1042a400889fbe008a1f78008000eb00010f780011
:1042b400000478000e0578008104780001003700be
:1042c4001900200018019000180078008001eb000c
:1042d4008a00780015f80700e10f5000f8ff3a0053
:1042e4000900e00002003a00280090001008e800ed
:1042f4001e0fe800f3ff37000200fa00889fbe009b
:104304008a1f7800000478008004eb000905780017
:1043140002003700800478001a0020001801900081
:10432400180078008001eb008e00780097f70700f2
:10433400e10f5000f9ff3a001e007800808f54000e
:10434400f4ff3a000a00e00002003a00280090005e
:104354001008e8008904e800f0ff37000000fa00c4
:10436400170020008000eb00e4ce210083ce210062
:1043740026ce2100c5cd21000180400060007b00d5
:1043840004017800940f500001003a008003eb0010
:104394000180400060097b0060807a00030178009e
:1043a400930f500001003a008003eb0001804000ad
:1043b40060897a008100e8000482e8008381e800d3
:1043c400e38f5000ecff3a00070078000080fa0009
:1043d400000006000000fa00889fbe0080047800f8
:1043e400e80f500001003600890020002100200061
:1043f4001000200054f6070070eb88000000e00075
:104404000e003a00100037000004eb0008017800a9
:104414008000eb00c0222200fdfd07000804e80034
:10442400888f5400f9ff3a000001eb0011002000ce
:1044340040292200f6fd0700030037000900e000d0
:10444400f9ff3200f0ff37004f04be000080fa008d
:10445400000006000200fa00881f7800010f7800af
:1044640000047800d008900000102000808f5000d5
:104474001300320003003e000100e0000700320098
:104484002500370010102000808f500018003200e3
:1044940073004000808f50001f003a0070eb8000d2
:1044a4000001eb008e0078000cf80700e40f4000d8
:1044b40007003a0000102000500c98001600370046
:1044c40070eb80000001eb008e00780003f8070019
:1044d400e50f400003003a0010102000500c980033
:1044e4000d003700e10f5000010032006c3def0079
:1044f4001e007800000040002184280060807800bd
:104504000000e000020032008000eb00f9fc07002c
:1045140040112000500c98004f0478000080fa00ed
:10452400000006000200fa00881f780000047800ea
:10453400d008900000142000808f50000e0032003c
:104544000000e800808f5000180032000100e000f5
:1045540019003a0070eb80000081eb008e007800b7
:104564000ef80700e40f400007003a000014200092
:10457400500c98001000370070eb80000001eb0035
:104584008e00780005f80700e50f400003003a00ac
:1045940010142000500c980007003700e10f500061
:1045a400020032006c3def00eaff37001e00780085
:1045b400e0020700e7ff37004f0478000080fa00ac
:1045c400000006000000fa0060eb80000080fa00a2
:1045d400000006000000fa00ca42a900c842a9006f
:1045e4000080fa00000006000000fa00c842a8009b
:1045f4000080fa00000006000000fa00c842a9008a
:10460400614060004200dd00a12c20009140780050
:104614000124a10080c0700001007800cae2b70044
:104624000080fa00000006000000fa00cac2bf00c1
:104634004200de00610060000080fa000000060015
:104644000000fa00e8ff0700e2ff070060222000f4
:104654007afb0700e4ff07006004200077fb0700f3
:10466400401f200075fb0700dfff07000080fa00f1
:10467400000006000000fa00889fbe0000047800d5
:104684008004eb00d3ff0700200020006bfb070031
:1046940061006400d8ff07000884d100c003200033
:1046a40066fb0700d0ff07002000200063fb070023
:1046b4008904e800e88f5400f2ff3a004f04be007a
:1046c4000080fa00000006000000fa00889fbe0087
:1046d4000004eb0089002000beff0700200020003a
:1046e40056fb0700c0ff07008000200053fb0700b3
:1046f4000884d100ccff07004700dd0000047400eb
:10470400800720004dfb07008904e900f2ff3a000e
:10471400080078004f04be000080fa000000060084
:104724000000fa00889fbe00c5ff0700c00c2000ef
:10473400d0ff070040042000ceff0700e2ff07007f
:104744000000e000fdff3200bdff0700c00c2000a8
:10475400c8ff0700e00b2000c6ff0700daff0700d0
:1047640080047800d8ff070000047800d6ff070013
:10477400d5ff0700d4ff0700d3ff0700d2ff0700cf
:10478400d1ff07004840dd0000804400cf80de00f8
:10479400cdef07000200200003d8230037f0070004
:1047a4004f04be000080fa00000006000000fa007a
:1047b400881f7800000478000202be00e1ea880045
:1047c400820120000400be0061fd07008003eb00ad
:1047d4000003eb00860278000802e90086017800f5
:1047e400920620000186280020412200ecf40700f4
:1047f4008003eb000003eb008602780008027800d7
:10480400860178009206200061862800e044220098
:10481400e3f407004f0478000080fa00000006006b
:104824000000fa00889fbe0099c5b30018c4b30005
:10483400f0ea80000001eb0088407800abfd07003f
:10484400e10f500002003a00e0ea8000390207005c
:104854000844e800894f5400f5ff3a00e0ea80007c
:104864008000eb001a020700c3f307006300400056
:1048740062092000110009000280d8001003200002
:10488400808f500001003e002103200001007800c9
:1048940067f30700e5ff37000200fa00889fbe00b7
:1048a4008a9fbe008c1f78000005eb000a06780082
:1048b40099c5b3008bc5b30018c4b300f0ea8000f7
:1048c4000081eb008e0078007efd07000000e00010
:1048d400040032009e4f14000b003a005c1dec00f3
:1048e400140207000844e800894f5400f3ff3a001b
:1048f4005c1dec008000eb00f5010700e10f5500a2
:104904000c003a00060037001a002000f8ff3700b8
:10491400f0ea80000081eb008e00780069fd07005a
:104924009ecf1500faff3a000c06e8000005eb00e4
:10493400e1ff3700e10f5600dfff3c005a3dec0079
:10494400ddff37000000fa00d1ea80000000eb0030
:10495400d0ea88000100e00001003a0010c0b30072
:104964000004a2000080fb000080fa0000000600a2
:104974000000fa00010878008000eb0011009800a4
:104984002100980032009800e8004000c07d280013
:1049940022812800b0187800800f5100fdff3a00f2
:1049a400200280008008780034c0bf000080fb0033
:1049b400900098000000eb00a00098006680400082
:1049c4000080fa00000006000000fa000000eb007e
:1049d400200888000008880080382100100888001a
:1049e400a5c0bf00f1c8b300014060000044a000ae
:1049f400a5e0b7008460a9009460a8000481a80021
:104a040004a1a90005e1a80040e88000900778000f
:104a14004f00780050eb88003400f9004400f9009e
:104a24004000f9003e00f9003c00f9003a00f900aa
:104a34003800f9002c00f9002a00f9002800f900d8
:104a44002600f9002400f9002200f9003200f900e0
:104a54003600f9004f0778004f06be004f05be0030
:104a64004f04be004f03be004f02be004f01be0004
:104a74004f00be004200f9000000060010002000b4
:104a84000080fa00000006000000fa000080fa002e
:104a9400000006000000fa0042a0a8006a3dec00f5
:104aa4000080fa00000006000000fa006a1ded0014
:104ab40050eb880001003a0042a0a9000080fa00ef
:104ac400000006003600f800809fbe00829fbe00f2
:104ad400849fbe00869fbe003400f80000002000c2
:104ae400a00188000000fa008460a9004ff20700ca
:104af4006027020000000000000000000080fa00af
:104b04003400f9004f03be004f02be004f01be0047
:0c4b14004f00be003600f9000040060013
:020000040000fa
:104b2000421d00000e000000020000000000000016
:104b30000000000000000000000100000000000074
:104b4000201d00001200000000000000f41c000006
:104b5000160000000200000000000000000000003d
:104b60000000000000000000000000000000000045
:104b70000000000000000000521c00005400000073
:104b8000000000006a1d000002000000020000009a
:104b9000ef000000500800000214000000000000b8
:104ba000dc1c00001800000000000000501d000088
:104bb0000a000000020000000000000000000000e9
:104bc0000000000000000000a61c000036000000ed
:104bd000000000006c1d0000020000000200000048
:104be000010000006e1d0000020000000000000037
:104bf000701d00000200000000000000321d0000d7
:104c00001000000000000000721d00000200000003
:104c100000000000741d00000200000002000000ff
:104c200000000000661d00000400000000000000fd
:104c30005a1d00000600000000000000601d00007a
:104c40000600000000000000761d000002000000c9
:104c500002000000000000000a1d00001600000015
:084c600000000000000000004c
:020000040000fa
:104c6800881f7800801f78000001eb000200e60032
:104c78000000ea000002eb00530020000004eb00f3
:104c88000e0008001900000000f0a7006102720081
:104c98006f03620003b0e600630242004419dd00be
:104ca800050f20000503620002b0e6000403b0000f
:104cb8004411dd00c42add000503620002b0e600ed
:104cc8000430b00007002300c42add000503620099
:104cd8004c33de0003b0e600070242004100dd006d
:104ce8004f21de004144dd00020474004122dd0052
:104cf80000f0a700610272004f0078008002eb000c
:104d08008001eb0003c0e7000500370003a0e700bf
:104d18000300370002032000825878001d00370086
:104d28000003eb00d30220000600e6008358780059
:104d38006f0164000610e700030037000203b000ab
:104d480082587800150020000003eb0003000800db
:104d58000f00000002002f0082016200cc19de0063
:104d68000618e70004003700030178000203b000ca
:104d780082587800150020006128e10004003a00fc
:104d88000698e700020037000203200082587800e6
:104d98004422dd008001eb00834878004f0478004e
:104da800000006000000fa00e4004000110098002e
:104db8008088eb0031009800410098000008eb0063
:104dc8000080fa00000006000000fa008000eb00f6
:104dd800410098000080fa00000006000000fa0078
:104de800900190001301900092009800100190002b
:104df800a2009800130190002101980091019800e9
:104e080011009800c00098001008e8000080fa001f
:104e1800000006000000fa00000278009101780006
:104e2800e18f410002003a0040019000080037007d
:104e38006401400012009000908f51000400390076
:104e48001201900012009000908f5100fcff310079
:104e5800120090009000980021009800a20098008d
:104e680011019800c4009800140ae8000080fa00b4
:104e7800000006000000fa00800078001000900092
:104e88002101900022009800a10190009001980053
:104e98004101900012009000810f500001003a007b
:104ea800130198000000eb00c00098001209e90007
:104eb8000080fa00000006004200f800801f780019
:104ec8000002200010028800811f7800829fbe0027
:104ed800849fbe00869fbe00889fbe008a9fbe003a
:104ee8008c9fbe008e1f78003600f8003200f80054
:104ef8002200f8002400f8002600f8002800f80036
:104f08002a00f8002c00f8003800f8003a00f800f1
:104f18003c00f8003e00f8004000f8004400f800ab
:104f28003400f80050eb8000801f780040e88000d3
:104f38000f087800d80b02000000000040e880004d
:104f4800900778004f00780050eb88003400f90093
:104f58004400f9004000f9003e00f9003c00f90067
:104f68003a00f9003800f9002c00f9002a00f9008d
:104f78002800f9002600f9002400f9002200f900b1
:104f88003200f9003600f9004f0778004f06be00de
:104f98004f05be004f04be004f03be004f02be00c7
:104fa8004f01be004f00be004200f900000006009d
:104fb8000000fa008003eb000003eb008602780093
:104fc8000002780023d7210092062000c18628001d
:104fd800407f2200f1f207000080fa00000006007e
:104fe8000400fa00889fbe008a1f78000005780038
:104ff8008004eb00d8ff2f000100370019002000c3
:10500800b007200001002000008fbe007044290076
:10501800310020001e0f40005e9748001e00be00b1
:105028000801b800008251000888b90080014200d8
:10503800028fbe001e00be00720020000300200088
:10504800a3ee0700008fbe00b0712700e1ff2f001c
:10505800be0f1000ae8f1800e8ff3a000900e0000c
:10506800e7ff3a008afe070010002000000d7800d4
:105078008cfe0700e2ff37000000fa0091eb800089
:105088000000eb0090eb88000100e00001003a000e
:1050980010c0b3000004a2000080fb000080fa00ea
:1050a800000006000000fa008000eb0041038800c1
:1050b80051038800400020004016880051168800df
:1050c80081eb88000080fa00000006000000fa006a
:1050d800881f7800120020000014dd000100e000a5
:1050e800070032006afe070008007800701db7004c
:1050f80080eb8800501688006afe07000900370018
:1051080063fe0700080078000080ea008180ea005a
:1051180082eb80000001610082eb88005216880053
:1051280060fe07004f0478000080fa0000000600c7
:105138000000fa00881f780011002000000cdd0034
:1051480053fe070082eb8000020064000700320073
:10515800080078000080ea008180ea000000610011
:1051680080eb8800501688000300370002007400a6
:1051780080eb8800501688004afe07004f0478002c
:105188000080fa00000006000000fa008000eb0032
:1051980081088800f108880031088800a108880083
:1051a8006101b80000a025002126200057ee070065
:1051b800600888001aa1ef00a7c0bf00f1c8b300bb
:1051c800014060000054a000a7e0b70084e0a900f7
:1051d80094e0a80011e1a8001fe1a8000080fa00ef
:1051e80000000600809fbe00821f78003400f8008f
:1051f80000002000a00188000000fa00a20880003a
:1052080030eb8000e40f50000700360040eb8000d0
:1052180080005100a0eb8000808f50000400360011
:10522800a1eb8800020037000000e80030eb88009e
:1052380042eb880084e0a9000080fa003400f900fd
:105248004f0178004f00be00004006000000fa0041
:105258002143a800c1cfb300014078002163b60004
:1052680020c3bf007f4060000064a00020e3b700b7
:105278002043a8002343a800014078002363b60018
:1052880030ccb3002263b60025e3a900f0c3b30015
:1052980024e3b7003083a8002ca3ef002c83a900d7
:1052a80085a0a900aac0bf000044a1000046b30021
:1052b800aae0b70095a0a80021e3a8000080fa00a2
:1052c800000006000000fa000a21ef0070382100f3
:1052d8007008880013e1a8000080fa0000000600aa
:1052e800801f78000000fa0000188000f0e88800ad
:1052f80085a0a9000080fa004f0078000040060051
:105308000000fa00881f7800000478000008a30055
:10531800020032000000a1000084e80073ef0700db
:105328008242800082004400f03f2100808f5000bc
:1053380006003e00810f5100040031002085200046
:105348000004410081428800010037000004eb009e
:1053580072f00700080078004f0478000080fa0017
:10536800000006000000fa000080fa0000000600b5
:105378000000fa005028ef000080fa000000060044
:105388000000fa0000402100814280000100500026
:085398000080fa00000006008d
:020000040000fa
:0453a0000000fe000b
:00000001FF
